:020000040800F2
:100000000000022081270008410B0008430B000874
:10001000450B0008470B0008490B000800000000D2
:100020000000000000000000000000004B0B000872
:100030004D0B0008000000004F0B0008510B00089A
:10004000D1270008D1270008D1270008D1270008B0
:10005000D1270008D1270008550B00086D0B0008B8
:10006000810B0008050E0008D1270008D1270008E1
:10007000D1270008D1270008D1270008D127000880
:10008000D1270008D1270008D12700080000000070
:10009000000000000000000000000000D127000860
:1000A000650E0008710E0008D1270008D12700084E
:1000B000B5100008C1100008CD100008D1270008B5
:1000C000D1270008D1270008D1270008D127000830
:1000D000D1270008D1270008D12700080000000020
:1000E000D1270008D1270008D12700080000000010
:1000F000000000000000000000000000D127000800
:1001000000000000D1270008D1270008D1270008EF
:1001100000000000000000000000000000000000DF
:10012000D1270008D1270008D1270008D1270008CF
:10013000D1270008000000000000000000000000BF
:10014000000000000000000000000000D1270008AF
:10015000D1270008D1270008D1270008D12700089F
:10016000D1270008D127000800000000000000008F
:10017000000000000000000000000000000000007F
:1001800000000000D127000800000000000000006F
:08019000D1270008D127000867
:1001980010B5054C237833B9044B13B10448AFF3B9
:1001A80000800123237010BDF80B00200000000020
:1001B8002C28000808B5034B1BB103490348AFF3CB
:1001C800008008BD00000000FC0B00202C2800085F
:1001D80053B94AB9002908BF00281CBF4FF0FF31A6
:1001E8004FF0FF3000F07AB9ADF1080C6DE904CE9C
:1001F80000F006F8DDF804E0DDE9022304B07047FA
:100208002DE9F0478C460D460446089E002B51D137
:100218008A4217466DD9B2FA82FEBEF1000F0BD0A2
:10022800CEF1200C01FA0EF520FA0CFC02FA0EF7BA
:100238004CEA050C00FA0EF44FEA174A250CBCFBF1
:10024800FAF81FFA87F90AFB18CC45EA0C4508FBAF
:1002580009F3AB420AD9ED1908F1FF3280F0238186
:10026800AB4240F22081A8F102083D44ED1AA4B245
:10027800B5FBFAF00AFB105544EA054400FB09F9FE
:10028800A14509D9E41900F1FF3380F00A81A1459D
:1002980040F2078102383C44A4EB090440EA0840D4
:1002A8000021002E61D024FA0EF40023346073601C
:1002B800BDE8F0878B4207D9002E54D0002186E88C
:1002C80021000846BDE8F087B3FA83F1002940F021
:1002D8008E80AB4202D3824200F2FA80841A65EB28
:1002E80003050120AC46002E3FD086E81010BDE87B
:1002F800F08712B90127B7FBF2F7B7FA87FEBEF10C
:10030800000F34D1EB1B3A0C1FFA87FC0121B3FB19
:10031800F2F8250C02FB183345EA03450CFB08F3F9
:10032800AB4207D9ED1908F1FF3002D2AB4200F217
:10033800D1808046ED1AA3B2B5FBF2F002FB10554E
:1003480043EA05440CFB00FCA44507D9E41900F175
:10035800FF3302D2A44500F2B8801846A4EB0C047F
:1003680040EA08409DE731463046BDE8F087CEF1C7
:10037800200405FA0EF307FA0EF720FA04F83A0CEF
:1003880025FA04F448EA0308B4FBF2F14FEA1845E9
:1003980002FB11441FFA87FC45EA044501FB0CF3F4
:1003A800AB4200FA0EF409D9ED1901F1FF3080F0E3
:1003B8008A80AB4240F2878002393D44EB1A1FFA2B
:1003C80088F5B3FBF2F002FB103345EA034500FB66
:1003D8000CF3AB4207D9ED1900F1FF386FD2AB42ED
:1003E8006DD902383D44EB1A40EA01418FE7C1F16B
:1003F800200722FA07F88B4005FA01F448EA0303BC
:1004080020FA07FE4FEA134CFD404EEA040EB5FBF6
:10041800FCF94FEA1E440CFB19551FFA83F844EA0D
:10042800054509FB08F4AC4202FA01F200FA01FAA8
:1004380008D9ED1809F1FF3043D2AC4241D9A9F1EE
:1004480002091D442D1B1FFA8EFEB5FBFCF00CFBA8
:1004580010554EEA054400FB08F8A04507D9E418F2
:1004680000F1FF3529D2A04527D902381C4440EABB
:100478000940A4EB0804A0FB02894C45C6464D463A
:1004880015D312D056B1BAEB0E0364EB050404FA87
:1004980007F7CB401F43CC40376074600021BDE8AC
:1004A800F0871846F8E69046E0E6C245EAD2B8EB8F
:1004B800020E69EB03050138E4E72846D7E7404612
:1004C80091E78146BEE7014678E702383C4445E7B4
:1004D800084608E7A8F102083D442BE7704700BF2B
:1004E8002DE9F04389B01422002103A802F092F903
:1004F80000243E4B00941A6BDFF8FC803C4D3D4FC6
:1005080042F080021A631A6B02F080020092009A8D
:1005180001941A6B42F001021A631A6B02F001028D
:100528000192019A02941A6B42F002021A631B6B41
:1005380003F002030293224640461021029B01F079
:100548007DF922462846022101F078F9022603A9FE
:100558004046039605964FF00109049701F0A0F86C
:10056800102303A940460393CDF8109005940694F0
:1005780001F096F8052303A92846039305960497E6
:1005880001F08EF803A928460396CDF810900826A6
:100598000594069401F084F803A928460396049765
:1005A800059401F07DF822462146062001F00CF85A
:1005B800062001F03DF822462146072001F004F804
:1005C800072001F035F822462146304600F0FCFFAE
:1005D800304601F02DF822462146092000F0F4FFAC
:1005E800092001F025F809B0BDE8F0830038024081
:1005F80000040240000011100000024030B595B020
:100608003022002108A802F005F90021142203A8CD
:1006180002F000F900241C4B01941A6C42F080523D
:100628001A641B6C03F080530193019B174B0294CF
:100638001A6842F440421A601B6803F4404302936C
:10064800029B012308934FF4803309934FF48003EE
:100658000F930C23109360230225119308A80423F9
:1006680013930E95129501F0FBF80F2303930321C2
:100678004FF4805303A8049505940693079401F05A
:10068800C3FA15B030BD00BF00380240007000400A
:100698002DE9874800F046FFFFF7B0FFFFF720FF7E
:1006A80000F0D6F900F02AFD00F060FD00F092FDA0
:1006B80000F0C6FD00F082FE00F09CFED54801F077
:1006C800AEFCD54801F0ABFCD44801F0A8FC0620EC
:1006D80000F0BCFF072000F0B9FF082000F0B6FFCB
:1006E800092000F0B3FF4FF47A7000F047FF64234D
:1006F8003122CB49CB4802AD01F0DEFF4FF4FA605E
:1007080000F03CFFFF2400221021C74801F096F8B2
:1007180005F8044D0A2301222946C448002601F0A1
:10072800D6FB0A2301222946C0488DF8046001F04F
:10073800CEFB01221021BC4801F080F80A2000F00D
:100748001DFF32461021B84801F078F84FF0090A29
:100758000A2301222946B5488DF804A001F0B7FB09
:100768000A2301222946B1488DF8044001F0AFFB65
:1007780001221021AC480A2701F060F83246102106
:10078800A948012401F05AF83B4601222946A74806
:100798008DF8047001F09BFB3B4622462946A3488E
:1007A8008DF8044001F093FB224610219E4801F089
:1007B80045F8324610219C4801F040F80B232246A8
:1007C8008DF8043029463B46984801F080FB4FF0ED
:1007D80007083B462246294694488DF8048001F0D4
:1007E80076FB22461021904801F028F83246102165
:1007F8008D4801F023F80C2322468DF80430294651
:100808003B468A4801F063FB3B4622462946874817
:100818008DF8044001F05BFB22461021824801F06C
:100828000DF832461021804801F008F822463B4670
:1008380029467E488DF8044001F049FB3B46224694
:1008480029467A488DF8046001F041FB22461021C0
:10085800754800F0F3FF32461021734800F0EEFFB0
:10086800022322468DF8043029463B466F4801F0A2
:100878002EFB3B46224629466C488DF8046001F061
:1008880026FB22461021684800F0D8FF3246102186
:10089800654800F0D3FF032322468DF8043029462B
:1008A8003B46624801F013FB4FF080093B46224665
:1008B80029465E488DF8049001F009FB2246102174
:1008C800594800F0BBFF32461021574800F0B6FFE8
:1008D800042322468DF8043029463B46534801F04C
:1008E800F6FA3B462246294650488DF8046001F046
:1008F800EEFA224610214C4800F0A0FF32461021A3
:10090800494800F09BFF052322468DF8043029460C
:100918003B46464801F0DBFA3B4622462946434817
:100928008DF8049001F0D3FA224610213E4800F0D9
:1009380085FF324610213C4800F080FF4FF0060B3F
:1009480022463B46294639488DF804B001F0BFFAE3
:100958003B462246294635488DF8046001F0B7FA2F
:1009680022461021304800F069FF324610212E48F7
:1009780000F064FF22463B4629462C488DF8048047
:1009880001F0A5FA3B462246294628488DF80490EE
:1009980001F09DFA22461021234800F04FFF32460D
:1009A8001021214800F04AFF4FF0080922463B4633
:1009B80029461E488DF8049001F089FA3B462246E4
:1009C80029461A488DF8046001F081FA2246102160
:1009D800154800F033FF4FF4FA6000F0CFFD0D4AE0
:1009E800134B10680C4A1B6811680C4A5E62126847
:1009F80046624E6256625C6A0E4B406A5880496A8B
:100A0800526A1C8058469980DA801E8100F010FED8
:100A1800404611E0480D0020C80C0020880C00203A
:100A280000000020C80D002000000240240C002017
:100A3800080D0020180C002000F0FAFD484600F0D0
:100A4800F7FD504600F0F4FDFEE700BF70470000D8
:100A580008B50E480E4B4FF4827E4FF4007280E8C2
:100A6800084000238360C3600361436182610362BD
:100A78000822436283620A23C261C36201F0EAF971
:100A880018B1BDE80840FFF7E1BF08BD240C0020FD
:100A98000030014010B5044688B01422002103A894
:100AA80001F0B8FE2268144B9A4222D103F5843330
:100AB800002101915A6C114842F480525A645A6CD0
:100AC80002F480520192019A02911A6B42F00102DB
:100AD8001A631B6B03F001030293029BA023039389
:100AE800022304930323069303A90523079300F025
:100AF800D7FD08B010BD00BF003001400000024023
:100B080082B00C4B002100915A6C42F480425A6426
:100B18005A6C02F480420092009A01911A6C42F0D9
:100B280080521A641B6C03F080530193019B02B03E
:100B3800704700BF003802407047FEE7FEE7FEE757
:100B4800FEE770477047704700F006BD08B5012002
:100B580000F07AFE0248BDE8084001F060BA00BF24
:100B6800080D002008B5022000F06EFE014B01229E
:100B78001A6008BD800C00202DE9F047964C974E6E
:100B8800DFF87082964FDFF870A2042000F05CFE58
:100B9800204601F054FA934B20681968924B934C05
:100BA8001A68934B1B684FF00009C0F82490C1F8ED
:100BB8002490C2F82490C3F82490406A496A526A83
:100BC800A8F800000125A8F80210A8F804205B6A1C
:100BD800A8F806304A4630461021A8F8089000F0D8
:100BE8002DFE2A4621460A233846257001F06FF962
:100BF800B8F8023003EB430353442A465B7823706A
:100C080021460A23384601F062F92A463046102167
:100C180000F014FE4A463046102100F00FFE022371
:100C280023702A4621460A23384601F050F9B8F8BD
:100C3800023003EB43032A461AF803302370214697
:100C48000A23384601F043F92A463046102100F0BD
:100C5800F5FD4A463046102100F0F0FD03232370CD
:100C68002A4621460A23384601F031F9B8F80430FB
:100C780003EB430353442A469B7863F07F032370B6
:100C880021460A23384601F022F92A463046102127
:100C980000F0D4FD4A463046102100F0CFFD042371
:100CA80023702A4621460A23384601F010F9B8F87D
:100CB800043003EB430353442A465B7823702146F0
:100CC8000A23384601F003F92A463046102100F07D
:100CD800B5FD4A463046102100F0B0FD05232370CB
:100CE8002A4621460A23384601F0F1F8B8F80630BA
:100CF80003EB430353442A469B7863F07F03237036
:100D080021460A23384601F0E2F82A4630461021E7
:100D180000F094FD4A463046102100F08FFD06236E
:100D280023702A4621460A23384601F0D0F8B8F83D
:100D3800063003EB430353442A465B78237021466D
:100D48000A23384601F0C3F82A463046102100F03D
:100D580075FD4A463046102100F070FD07232370C8
:100D68002A4621460A23384601F0B1F8B8F8083077
:100D780003EB430353442A469B7863F07F032370B5
:100D880021460A23384601F0A2F82A4630461021A7
:100D980000F054FD4A463046102100F04FFD08236C
:100DA80023702A4621460A23384601F090F8B8F8FD
:100DB800083003EB43039A442A469AF8013023701B
:100DC800214638460A2301F082F82A463046102187
:100DD800BDE8F04700F032BD080D002000000240D9
:100DE800240C0020480D0020C80C0020840C002092
:100DF800880C0020180C00203100002010B5104C81
:100E0800082000F021FD2368012B07D164230A2262
:100E18000C490D4801F050FC002323600B4B1B6864
:100E28005A6A084B1A800A4A1268526A5A80094A52
:100E38001268526A9A80084A1268526ADA8010BDAB
:100E4800800C0020180C0020880D0020080D0020C0
:100E5800480D0020C80C0020880C0020014801F033
:100E680008B900BF080D00202DE9F843884801F0B3
:100E780000F9884B1E6801360A2E02D01E60BDE8B4
:100E8800F883854CDFF820928448854F4FF000089E
:100E9800012542461021C3F8008000F0CFFC3346FC
:100EA8002A4621467F48257001F011F8B9F802302A
:100EB8007C4803EB43033B442A465B782370214676
:100EC800334601F004F82A461021744800F0B6FCB5
:100ED80042461021714800F0B1FC022323702A46D3
:100EE800334621466F4800F0F2FFB9F802306D48EA
:100EF80003EB43032A46FB5C23702146334600F08C
:100F0800E6FF2A461021654800F098FC4246102169
:100F1800624800F093FC032323702A463346214697
:100F2800604800F0D4FFB9F804305E4803EB43038F
:100F38003B442A469B7863F07F032370214633465F
:100F480000F0C5FF2A461021544800F077FC4246BD
:100F58001021524800F072FC042323702A463346BD
:100F68002146504800F0B3FFB9F804304D4803EB70
:100F780043033B442A465B7823702146334600F0FE
:100F8800A6FF2A461021454800F058FC4246102189
:100F9800424800F053FC052323702A463346214675
:100FA800404800F094FFB9F806303E4803EB43038D
:100FB8003B442A469B7863F07F03237021463346DF
:100FC80000F085FF2A461021344800F037FC4246DD
:100FD8001021324800F032FC062323702A4633469B
:100FE8002146304800F073FFB9F806302D4803EB6E
:100FF80043033B442A465B7823702146334600F07E
:1010080066FF2A461021254800F018FC42461021A8
:10101800224800F013FC072323702A463346214652
:10102800204800F054FFB9F808301E4803EB43038A
:101038003B442A469B7863F07F032370214633465E
:1010480000F045FF2A461021144800F0F7FB4246FD
:101058001021124800F0F2FB082323702A46334679
:101068002146104800F033FFB9F808300D4803EB6B
:1010780043031F442A467B7823702146334600F0F9
:1010880026FF2A4610210548BDE8F84300F0D6BBE4
:10109800080D0020140C0020840C002000000240E1
:1010A80031000020240C0020180C0020014800F01A
:1010B800E0BF00BF480D0020014800F0DABF00BFC4
:1010C800C80C002008B5044800F0D3FF034A138970
:1010D8000133138108BD00BF880C0020180C0020C4
:1010E800054BD3F8882042F47002C3F888204FF0EB
:1010F80000629A60704700BF00ED00E010B586B04E
:101108001022002102A801F085FB1648164B002486
:1011180080E8180040F2E733009401948460C360CB
:1011280004614461846101F095F808B1FFF78EFC11
:101138004FF4005302A90B480293039404940594B6
:1011480001F0ACF808B1FFF781FC20228023694642
:1011580004488DE80C0001F0AFF908B1FFF776FC00
:1011680006B010BD080D00200000014010B588B081
:101178001422002103A801F04DFB154800244FF06C
:10118800804380E8180040F2E733019402948460B9
:10119800C3600461846101F05DF808B1FFF756FC93
:1011A800072303A90A480393049401F05DF908B1E1
:1011B800FFF74CFC2023019301A9802304480293E4
:1011C80001F07AF908B1FFF741FC08B010BD00BF83
:1011D800480D002000B589B01422002103A801F0B1
:1011E80019FB1548154A002380E80C003B2201939F
:1011F80002938360C2600361836101F02BF808B138
:10120800FFF724FC0723039303A910230A48049338
:1012180001F02AF908B1FFF719FC2023019301A96D
:1012280080230548029301F047F908B1FFF70EFC47
:1012380009B05DF804FB00BFC80C002000040040A2
:1012480010B588B01422002103A801F0E3FA14486D
:10125800144A002380E80C003B2201930293836028
:10126800C2600361836100F0F5FF08B1FFF7EEFB90
:101278000723202403A90A480393049401F0F4F8EF
:1012880008B1FFF7E3FB802301A905480194029305
:1012980001F012F908B1FFF7D9FB08B010BD00BF83
:1012A800880C00200008004010B514228AB00446BB
:1012B80000210DEB020001F0ADFA23683A4A93428F
:1012C80032D10024394B00945A6C394842F001025B
:1012D8005A645A6C02F001020092009A01941A6B47
:1012E80042F001021A631B6B03F001030193019B97
:1012F8004FF4805305930223069305A9012309930C
:1013080000F0CEF922462146182000F05DF9182099
:1013180000F08EF919202246214600F055F91920CF
:1013280000F086F90AB010BDB3F1804F12D1002247
:1013380003F50E330292196C41F0010119641B6C1C
:1013480003F0010302931C201146029B00F03CF9B4
:101358001C20E5E7174A934211D10022134B039250
:10136800196C41F0020119641B6C03F0020303932A
:101378001D201146039B00F027F91D20D0E70E4AD7
:101388009342CFD10022094B0492196C41F0040119
:1013980019641B6C03F0040304931E201146049B7C
:1013A80000F012F91E20BBE700000140003802409F
:1013B80000000240000400400008004008B50B4847
:1013C8000B4B4FF4E13E80E808400822002383607D
:1013D800C360036142618361C36101F03FF918B1E1
:1013E800BDE80840FFF732BB08BD00BF880D0020EC
:1013F8000010014008B50B480B4B4FF4165E80E80F
:1014080008400C2200238360C3600361426183614A
:10141800C36101F023F918B1BDE80840FFF716BB16
:1014280008BD00BFC80D00200044004010B51422BC
:101438008AB0044600210DEB020001F0EBF92368A5
:10144800224A934226D1224B002101915A6C42F044
:1014580010025A645A6C02F010020192019A029129
:101468001A6B42F001021A631B6B03F0010302932B
:10147800029B4FF4C063059302230693012307934D
:101488000323089305A907231248099300F008F9D4
:101498000AB010BD104A9342FAD10D4B00210391B6
:1014A8001A6C42F400321A641A6C02F40032039285
:1014B800039A04911A6B42F001021A631B6B03F042
:1014C80001030493049B0C23D5E700BF00100140DF
:1014D80000380240000002400044004038B50E4A7F
:1014E8000E4B054618784FF47A73B3FBF0F3106887
:1014F800B0FBF3F000F0BEF8044658B90F2D09D838
:10150800024629464FF0FF3000F05EF8044B2046B3
:101518001D6038BD012038BDEC0B0020F00B002009
:10152800F40B002008B50B4B1A6842F400721A60DD
:101538001A6842F480621A601A6842F480721A606B
:10154800032000F02FF80020FFF7C8FFFFF7D8FAB4
:10155800002008BD003C0240034A044B11681B7878
:101568000B441360704700BF080E0020F00B0020EA
:10157800014B1868704700BF080E002038B50446B4
:10158800FFF7F6FF631C1CBF054B1B78054618BF09
:10159800E418FFF7EDFF401B8442FAD838BD00BFBE
:1015A800F00B0020074AD36823F4E0631B041B0CEC
:1015B80043F0BF63000243F4003300F4E0600343E8
:1015C800D360704700ED00E0174B30B5DC68C4F31A
:1015D8000224C4F10703251D042B28BF0423062D6C
:1015E8004FF0010505FA03F303F1FF338CBF033C09
:1015F80000241940A14005FA04F4013C22400028C7
:1016080042EA01024FEA0212ADBF00F1604000F069
:101618000F00064B00F56140B5BFD2B2D2B21A54E2
:1016280080F8002330BD00BF00ED00E014ED00E0BD
:10163800002808DB4209012300F01F0003FA00F02C
:10164800014B43F82200704700E100E000280DDB61
:101658004309012200F01F0002FA00F02033044A77
:1016680042F82300BFF34F8FBFF36F8F704700BF5F
:1016780000E100E00138B0F1807F0AD2064B074A4A
:101688005860F02182F823100020072298601A6021
:1016980070470120704700BF10E000E000ED00E057
:1016A8002DE9F04F85B00B68DFF88C81604A019313
:1016B8004FF001090023019D09FA03F42540AC42CB
:1016C80040F0A6804C6824F0100C0CF1FF36012E77
:1016D8004FEA430E12D88768032606FA0EF627EA61
:1016E8000607CE6806FA0EF63E4386604768C4F3DE
:1016F800001627EA05079E403E4346600326C76852
:1017080006FA0EF6F64307EA060A8F6807FA0EF796
:1017180047EA0A07BCF1020FC76016D14FEAD30A9D
:1017280000EB8A0A03F0070BDAF820704FEA8B0BFC
:101738004FF00F0C0CFA0BFC27EA0C0C0F6907FA98
:101748000BF747EA0C07CAF8207007683E4004F018
:10175800030707FA0EFE4EEA06060660E60057D5AE
:101768004FF0000BCDF80CB0D8F84470314E47F468
:101778008047C8F84470D8F8447007F48047039746
:10178800039F23F0030707F1804707F59C3703F011
:10179800030CD7F808A04FEA8C0C4FF00F0E0EFA86
:1017A8000CFEB0422AEA0E0E39D006F58066B04229
:1017B80037D006F58066B04235D006F58066B0426F
:1017C80033D006F58066B04214BF0726042606FA11
:1017D8000CF646EA0E06BE601668EF4314F4803F26
:1017E8000CBF3E402E431660566814F4003F0CBFF1
:1017F8003E402E435660966814F4801F0CBF3E404E
:101808002E439660D668A40254BF3E402E43D6604D
:101818000133102B7FF44FAF05B0BDE8F08F5E4663
:10182800D5E70126D3E70226D1E70326CFE700BF95
:10183800003C014000000240003802400AB18161CA
:1018480070470904FBE7704708B5044B5969014222
:1018580002D05861FFF7F7FF08BD00BF003C014008
:101868002DE9F341044608B901203FE00368DD078C
:1018780010D4236898075AD423681A0700F19C806B
:1018880023685B0700F1BA80A069002840F01B813B
:1018980000202BE0A44B9A6802F00C02042A07D01F
:1018A8009A6802F00C02082A0AD15B68590207D527
:1018B8009D4B1B689A03DCD56368002BD9D1D3E70D
:1018C8006368994DB3F5803F13D12B6843F4803397
:1018D8002B60FFF74DFE944D06462B689B03C8D43A
:1018E800FFF746FE801B6428F7D9032002B0BDE845
:1018F800F081B3F5A02F04D12B6843F480232B602B
:10190800E3E72A6822F480322A602A6822F48022D7
:101918002A60002BDDD1FFF72BFE06462B689F03BC
:10192800A7D5FFF725FE801B6428F7D9DDE77E4B96
:101938009A6812F00C0F07D09A6802F00C02082A75
:1019480011D15B685E020ED4774B1A68950702D5F1
:10195800E268012A88D11A68216922F0F80242EA6D
:10196800C1021A6088E7E268704BB2B101221A60BE
:10197800FFF7FEFD6C4D06462B68980707D52B68C8
:10198800226923F0F80343EAC2032B6074E7FFF7E8
:10199800EFFD801B0228EFD9A7E71A60FFF7E8FDE3
:1019A800614D06462B6899077FF566AFFFF7E0FDA6
:1019B800801B0228F6D998E762695D4B7AB101224B
:1019C8001A60FFF7D5FD584D06466B6F9F073FF528
:1019D80057AFFFF7CDFD801B0228F6D985E71A60BF
:1019E800FFF7C6FD504D06466B6F98077FF548AF69
:1019F800FFF7BEFD801B0228F6D976E74A4B1A6C22
:101A080012F0805228D101921A6C42F080521A6466
:101A18001B6C03F080530193019B0126454D2B68F5
:101A2800D9051BD5A368404D012B27D12B6F43F057
:101A380001032B67FFF79CFD3B4D074641F28838B1
:101A48002B6F9B0739D5002E3FF41EAF364A136C17
:101A580023F08053136417E70026DFE72B6843F46D
:101A680080732B60FFF784FD07462B68DA05D9D40D
:101A7800FFF77EFDC01B0228F7D936E7052B04D1F6
:101A88002B6F43F004032B67D0E72A6F22F0010283
:101A98002A672A6F22F004022A67002BCAD1FFF7AF
:101AA80067FD41F2883807462B6F9807CBD5FFF7BB
:101AB8005FFDC01B4045F7D917E7FFF759FDC01B6D
:101AC8004045BDD911E7184DAB6803F00C03082B4E
:101AD80047D0194E00230228336035D1FFF748FD5F
:101AE80007462B68990129D4226AE3691343626A7D
:101AF80043EA8213E26A43EA0263A26A0A4C520882
:101B0800013A43EA02436B6001233360FFF730FD7B
:101B1800054623689A013FF5BBAEFFF729FD401B38
:101B28000228F6D9E1E600BF00380240000047422B
:101B3800800E47420070004060004742FFF718FDE2
:101B4800C01B0228CDD9D0E6FFF712FD04462B684A
:101B58009B017FF59DAEFFF70BFD001B0228F6D910
:101B6800C3E601283FF4C2AEA868E36900F4800226
:101B78009A427FF479AE226A00F03F0393427FF4E1
:101B880073AE626A47F6C073034093427FF46CAE4B
:101B9800A26A00F4403393427FF466AEE36A00F031
:101BA8007060C01A18BF0120A0E600BF134908B52D
:101BB8008B6803F00C03042B03D0082B03D01048C8
:101BC80008BD104808BD4A684B68496813F480038B
:101BD80014BF0C480A48C1F3881118BF002302F04B
:101BE8003F02A1FB0001FEF7F3FA044B5B68C3F365
:101BF800014301335B00B0FBF3F008BD003802403D
:101C08000024F40040787D012DE9F0410D4604469A
:101C180010B90120BDE8F081444B1A6802F00F02A8
:101C28008A4229D321688F072ED4C80741D43F4B55
:101C38001A6802F00F02954267D3226851076DD4E3
:101C4800130707D53A4A2169936823F4604343EAA6
:101C5800C1039360FFF7AAFF354B364A9B68C3F36D
:101C68000313D35CD840344B1860344B1868FFF723
:101C780035FC0020BDE8F081CAB21A701B6803F079
:101C88000F039942C5D1CDE7294B11F0040F1EBFB0
:101C98009A6842F4E0529A600E0742BF9A6842F48A
:101CA80060429A609A68A06822F0F00202439A6043
:101CB800BBE762681E4B012A1DD11B6813F4003F65
:101CC800A7D01B4EB36823F003031343B360FFF799
:101CD8004FFC41F288380746B368626803F00C038A
:101CE800B3EB820FA3D0FFF743FCC01B4045F3D9E9
:101CF8000320BDE8F081911E01291B6802D813F06A
:101D0800007FDDE713F0020FDAE7EAB21A701B680A
:101D180003F00F039D427FF47CAF8EE70449E0682F
:101D28008B6823F4E05303438B6089E7003C02404F
:101D38000038024044280008EC0B0020F40B002077
:101D4800044B054A9B68C3F38223D35C034A10689B
:101D5800D84070470038024054280008EC0B002097
:101D6800044B054A9B68C3F34233D35C034A1068AB
:101D7800D84070470038024054280008EC0B002077
:101D8800F8B504460E4615461F4621688A6836EAA5
:101D9800020301D00020F8BD6B1CF7D0FFF7E8FB69
:101DA800C01B8542F1D823685A6822F0E0025A60C5
:101DB8006268B2F5827F0AD1A268B2F5004F02D0FC
:101DC800B2F5806F03D11A6822F040021A60A26A45
:101DD800B2F5005F07D11A6822F400521A601A6837
:101DE80042F400521A60012384F85130002384F829
:101DF80050300320F8BD000073B51346134A144E43
:101E080015684268B5FBF6F64FF47A757543B2F576
:101E1800827F044601950DD10A468021FFF7B0FF65
:101E280010B9002002B070BD636D43F020036365F4
:101E38000320F7E7019B002BF3D0019B013B0193A3
:101E480023689B681B06F5D4EBE700BFEC0B00206A
:101E580000366E0110B50446002836D00023836290
:101E680090F8513003F0FF021BB980F85020FEF7BC
:101E780011FE2168A068A269022384F851300B681A
:101E880023F040030B6063680343E0680343206961
:101E9800034360690343E0690343206A0343A06A7C
:101EA800034302F4007003430B60120C636A02F0F0
:101EB80004021A434A60CB6923F40063CB61002013
:101EC8000123606584F8513010BD012010BD2DE953
:101ED800F3411E4690F85030012B04460D469046BB
:101EE80000F09B80012380F85030FFF741FB074644
:101EF80094F85100C0B2012840F08D80002D5DD0CB
:101F0800B8F1000F5AD0032384F851300020A36899
:101F18006065A063A4F83680A087E08760642064C9
:101F280020682563B3F5004F08BF0368A4F8348020
:101F380004BF43F48043036003685B065EBF036825
:101F480043F040030360E368B3F5006F63683ED174
:101F580013B1B8F1010F07D135F8023BC36025630F
:101F6800E38E013B9BB2E386E38E9BB2A3B93A466C
:101F780031462046FFF740FF002849D1A36833B90E
:101F880001932368DA6801929B680193019B606D55
:101F9800003018BF012011E022689368980705D522
:101FA800236B33F8021BD1602363D9E7FFF7E0FA0C
:101FB800C01BB042D8D3711CD6D00320012384F8AB
:101FC8005130002384F8503002B0BDE8F08113B1DD
:101FD800B8F1010F08D12B780373236B0133236306
:101FE800E38E013B9BB2E386E38E9BB2002BBED00F
:101FF80023689A68920703D5226B12781A73ECE764
:10200800FFF7B6FAC01B8642EED8731CECD0D4E7B3
:1020180020236365B2E70220D0E70220D4E70368F3
:10202800DA6842F00102DA609A6802F00702062ACA
:102038001EBF1A6842F001021A6000207047036848
:10204800DA6822F00102DA60196A41F211121142CB
:1020580008D1196A40F24442114202BF1A6822F0BC
:1020680001021A6000207047704770477047704738
:10207800704703681A69910710B504460ED5DA68E7
:1020880092070BD56FF002021A619B6901229B0728
:10209800027777D0FFF7EAFF0023237723681A69CE
:1020A800500710D5DA6851070DD56FF004021A6190
:1020B8009B69022213F4407F2277204668D0FFF7FD
:1020C800D5FF0023237723681A6912070FD5DA682A
:1020D80010070CD56FF008021A61DB690422990712
:1020E800227720465AD0FFF7C1FF002323772368C1
:1020F8001A69D20610D5DA68D0060DD56FF010022D
:102108001A61DB69082213F4407F227720464BD0FE
:10211800FFF7ACFF0023237723681A69D10708D596
:10212800DA68D20705D56FF001021A612046FFF779
:102138009BFF23681A69100608D5DA68110605D5C9
:102148006FF080021A61204600F0F1F923681A69DD
:10215800520608D5DA68500605D56FF040021A61B4
:102168002046FFF785FF23681A69910622D5DA68A9
:1021780092061FD56FF0200220461A61BDE8104074
:1021880000F0D4B9FFF771FF2046FFF770FF83E72F
:10219800FFF76BFF2046FFF76AFF92E7FFF765FF3F
:1021A8002046FFF764FFA0E7FFF75FFF2046FFF731
:1021B8005EFFAFE710BD0000244A036890420ED0CE
:1021C800B0F1804F0BD0A2F57C42904207D002F5C7
:1021D8008062904203D002F58062904215D14A682D
:1021E80023F070031343194A904219D0B0F1804F7D
:1021F80016D0A2F57C42904212D002F5806290423D
:102208000ED002F5806290420AD0114A904207D05F
:1022180002F58062904203D002F58062904203D1B9
:10222800CA6823F4407313434A6923F080031343B5
:1022380003608B68C3620B688362044B984204BFD7
:102248000B69036301234361704700BF000001402D
:102258000040014010B50446A0B190F83D3003F0AD
:10226800FF021BB980F83C20FFF71EF8022384F810
:102278003D302068211DFFF79FFF012384F83D3082
:10228800002010BD012010BD10B584680A4324F455
:102298007F4442EA03232343836010BD90F83C3017
:1022A800012B70B504464FF0020019D084F83D00A8
:1022B8002068012384F83C30836823F47F4323F0AB
:1022C800770383600B68402B65D015D8102B0CD092
:1022D80007D853B10123002084F83D3084F83C002E
:1022E80070BD202B01D0302BF4D1826843F0070356
:1022F80022F0700213431AE0602B34D019D8502B07
:10230800E8D14A68CE68016A056A25F001050562C8
:10231800836921F00A0123F0F00343EA06130A4314
:1023280083610262836823F0700343F0570383607C
:10233800D0E7702B0CD0B3F5005FCBD1CB684A68DF
:102348008968FFF7A1FF2268936843F4804308E097
:10235800CB684A688968FFF797FF2268936843F05B
:1023680077039360B6E74D68CE68016A21F01001E3
:1023780001628269036A22F4704223F0A00343EAEF
:10238800051342EA063282610362836823F0700310
:1023980043F06703CBE74A68CE68016A056A25F00F
:1023A80001050562836921F00A0123F0F00343EA7D
:1023B80006130A4383610262836823F0700343F0C3
:1023C8004703B4E700684A6838B583680C6823F0A7
:1023D8007003134323F007032343502A83601ED05E
:1023E80003D8402A0BD0002038BD602A27D0702A95
:1023F800F9D10B698A68C968FFF746FFF3E7052C2E
:1024080030D0026A036A096923F001030362836911
:1024180023F0F00343EA011383610262E3E78A6869
:102428000D69016A046A24F001040462836921F0D9
:102438000A0123F0F00343EA05130A43ECE78C682A
:102448000D69016A21F0100101628269036A22F4B0
:10245800704223F0A00342EA053243EA0413826182
:102468000362C0E7012038BD38B590F83C30012B35
:1024780004464FF002031CD0012580F83C5080F838
:102488003D30FFF79FFF30B1002384F83D5084F8BA
:102498003C30284638BD2368DA6822F04002DA600A
:1024A800DA6822F48042DA6084F83D5084F83C000F
:1024B80038BD184638BD000090F83C30012B30B5C7
:1024C8004FF002032DD080F83D3003680D685C683A
:1024D80024F0700401222C4380F83C209A685C6048
:1024E800114CA34212D0B3F1804F0FD0A4F57C4415
:1024F800A3420BD004F58064A34207D004F580649E
:10250800A34203D004F59A34A34204D1496822F0C7
:1025180080020A439A60012380F83D30002380F846
:102528003C30184630BD00BF00000140704770477E
:1025380038B50368C1681A69044622F440520A4350
:102548001A612569A268D968C0692A43656921F4B6
:1025580016412A4321F00C0102430A43DA605A6902
:10256800A16922F440720A43B0F5004F5A61254A26
:1025780029D1934203D002F58062934220D1FFF71C
:10258800EFFB6268256892184FF000034FF01901BD
:102598005B41A0FB0101FDF71BFE6421B0FBF1F4D8
:1025A80001FB1403DB003233B3FBF1F303F0070242
:1025B8005B0002EB041203F4F8731344AB6038BDFC
:1025C800FFF7BEFBDDE7934202D00F4A934216D1D4
:1025D800FFF7C6FB6368256819219A00A0FB010173
:1025E8009B0FFDF7F5FD6422B0FBF2F102FB11032E
:1025F8001B013233B3FBF2F303EB0113DEE7FFF702
:102608009FFBE7E70010014000140140F8B50446BD
:102618000E4617461D4621680B6836EA030301D1AA
:102628000020F8BD6B1CF7D095B92368DA6822F44E
:10263800D072DA605A6922F001025A61202384F8C4
:10264800393084F83A30002384F838300320F8BD54
:10265800FEF78EFFC01B8542DDD2E6E710B50446C3
:1026680040B390F8393003F0FF021BB980F83820E6
:10267800FEF7DCFE2268242384F83930D36823F47B
:102688000053D3602046FFF753FF23681A6922F4EA
:1026980090421A615A6922F02A025A61DA6842F4B1
:1026A8000052DA6000202023E06384F8393084F88F
:1026B8003A3010BD012010BD2DE9F8431F4690F8AF
:1026C8003930202B04460D46904651D100294CD074
:1026D800002A4AD090F83830012B49D0012380F8DD
:1026E80038304FF000092123C0F83C9080F8393089
:1026F800FEF73EFFA4F824800646A4F8268084F856
:102708003890E38C9BB25BB93B4632464021204669
:10271800FFF77CFFA0B9202384F83930BDE8F8839F
:10272800E38C013B9BB2E384A368B3F5805F324638
:102738003B464FF0800120460ED1FFF767FF10B1EE
:102748000320BDE8F8832B882268C3F3080353608D
:10275800236943B90235D4E7FFF758FF0028EFD1C2
:1027680023682A785A600135CBE70120BDE8F88351
:102778000220BDE8F8830000DFF834D0002103E030
:102788000C4B5B58435004310B480C4B42189A428F
:10279800F6D30B4A02E0002342F8043B094B9A4265
:1027A800F9D3FEF79DFC00F011F8FDF771FF7047B3
:1027B800000002206C28000800000020F80B002010
:1027C800F80B00200C0E0020FEE7000070B50D4E3F
:1027D8000D4CA41BA4100025A54209D10B4E0C4C8E
:1027E80000F020F8A41BA4100025A54205D170BD57
:1027F80056F8253098470135EEE756F825309847C2
:102808000135F2E7642800086428000864280008F5
:102818006828000802440346934200D1704703F831
:10282800011BF9E7F8B500BFF8BC08BC9E46704725
:0C283800F8B500BFF8BC08BC9E46704715
:10284400000000000000000001020304060708095C
:08285400000000000102030472
:08285C00ACD9FF7F0100000070
:04286400BD010008AA
:0428680099010008CA
:10286C00B56206312000000100000000000040426B
:10287C000F0040420F009A9999199A9999190000E2
:10288C0000006F000000B3B2B562063101000038E1
:10289C00E50000000000010000020000030000043D
:1028AC0000000500000600000700000800000900F9
:1028BC0001000001010001020001030001040001FC
:1028CC0005000106000107000108000109000200D3
:1028DC0000020100020200020300020400020500D3
:1028EC0002060002070002080002090003000003B0
:1028FC0001000302000303000304000305000306A8
:10290C000003070003080003090004000004010091
:10291C00040200040300040400040500040600047F
:10292C000700040800040900050000050100050269
:10293C000005030005040005050005060005070059
:10294C000508000509000600000601000602000645
:10295C00030006040006050006060006070006082C
:10296C00000609000700000701000702000703002A
:10297C000704000705000706000707000708000703
:10298C000900080000080100080200080300080400
:10299C0000080500080600080700080800080900E0
:1029AC0009000009010009020009030009040009DB
:1029BC0005000906000907000908000909010000C3
:1029CC0001000101000201000301000401000501E6
:1029DC0000060100070100080100090101000101C6
:1029EC0001010102010103010104010105010106BC
:1029FC0001010701010801010901020001020101A5
:102A0C000202010203010204010205010206010295
:102A1C00070102080102090103000103010103027D
:102A2C00010303010304010305010306010307016C
:102A3C00030801030901040001040101040201045B
:102A4C000301040401040501040601040701040840
:102A5C00010409010500010501010502010503013D
:102A6C000504010505010506010507010508010519
:102A7C000901010001060101060201060301060419
:102A8C0001060501060601060701060801060901F3
:102A9C0007000107010107020107030107040107F1
:102AAC0005010706010707010708010709010800CE
:102ABC0001080101080201080301080401080501CD
:102ACC0008060108070108080108090109000109A5
:102ADC0001010902010903010904010905010906A3
:102AEC00010907010908010909020000020001029D
:102AFC0000020200030200040200050200060200AC
:102B0C000702000802000902010002010102010291
:102B1C00020103020104020105020106020107027F
:102B2C000108020109020200020201020202020271
:102B3C000302020402020502020602020702020854
:102B4C000202090203000203010203020203030250
:102B5C00030402030502030602030702030802032F
:102B6C000902040002040102040202040302040428
:102B7C000204050204060204070204080204090206
:102B8C000500020501020502020503020504020507
:102B9C0005020506020507020508020509020600E2
:102BAC0002060102060202060302060402060502E0
:102BBC0006060206070206080206090207000207BB
:102BCC0001020702020703020704020705020706B7
:102BDC00020707020708020709020800020801029F
:102BEC00080202080302080402080502080602088B
:102BFC000702080802080902090002090102090279
:102C0C000209030209040209050209060209070266
:102C1C000908020909030000030001030302030071
:102C2C000303000403000503000603000703000868
:102C3C000300090301000301010301020301030363
:102C4C000104030105030106030107030108030145
:102C5C00090302000302010302020302030302043C
:102C6C000302050302060302070302080302090319
:102C7C00030003030103030203030303030403031D
:102C8C0005030306030307030308030309030400F6
:102C9C0003040103040203040303040403040503F3
:102CAC0004060304070304080304090305000305D1
:102CBC0001030502030503030504030505030506CB
:102CCC0003050703050803050903060003060103B2
:102CDC0006020306030306040306050306060306A1
:102CEC00070306080306090307000307010307028D
:102CFC00030703030704030705030706030707037A
:102D0C000708030709030800030801030802030866
:102D1C00030308040308050308060308070308084F
:102D2C00030809030900030901030902030903034A
:102D3C000904030905030906030907030908030924
:102D4C000904000004000104000204000304000450
:102D5C00040005040006040007040008040009042C
:102D6C000100040101040102040103040104040133
:102D7C00050401060401070401080401090402000A
:102D8C000402010402020402030402040402050406
:102D9C0002060402070402080402090403000403E7
:102DAC0001040302040303040304040305040306DF
:102DBC0004030704030804030904040004040104C5
:102DCC0004020404030404040404050404060404B7
:102DDC0007040408040409040500040501040502A1
:102DEC00040503040504040505040506040507048D
:102DFC00050804050904060004060104060204067D
:102E0C000304060404060504060604060704060863
:102E1C00040609040700040701040702040703045D
:102E2C00070404070504070604070704070804073A
:102E3C000904080004080104080204080304080437
:102E4C000408050408060408070408080408090413
:102E5C000900040901040902040903040904040912
:102E6C0005040906040907040908040909050000FA
:102E7C000500010500020500030500040500050519
:102E8C0000060500070500080500090501000501FD
:102E9C0001050102050103050104050105050106F3
:102EAC0005010705010805010905020005020105D8
:102EBC0002020502030502040502050502060502CD
:102ECC0007050208050209050300050301050302B5
:102EDC0005030305030405030505030605030705A0
:102EEC000308050309050400050401050402050493
:102EFC000305040405040505040605040705040878
:102F0C000504090505000505010505020505030570
:102F1C000504050505050506050507050508050550
:102F2C00090506000506010506020506030506044B
:102F3C000506050506060506070506080506090526
:102F4C000700050701050702050703050704050728
:102F5C000505070605070705070805070905080005
:102F6C000508010508020508030508040508050500
:102F7C0008060508070508080508090509000509DC
:102F8C0001050902050903050904050905050906DA
:102F9C0005090705090805090906000006000106D0
:102FAC0000020600030600040600050600060600E3
:102FBC0007060008060009060100060101060102C9
:102FCC0006010306010406010506010606010706B3
:102FDC0001080601090602000602010602020602A9
:102FEC00030602040602050602060602070602088C
:102FFC000602090603000603010603020603030684
:10300C000304060305060306060307060308060366
:10301C00090604000604010604020604030604045F
:10302C000604050604060604070604080604090639
:10303C00050006050106050206050306050406053E
:10304C000506050606050706050806050906060019
:10305C000606010606020606030606040606050613
:10306C0006060606070606080606090607000607F2
:10307C0001060702060703060704060705060706EE
:10308C0006070706070806070906080006080106D2
:10309C0008020608030608040608050608060608C2
:1030AC0007060808060809060900060901060902B0
:1030BC00060903060904060905060906060907069A
:1030CC0009080609090700000700010700020700AC
:1030DC0003070004070005070006070007070008A0
:1030EC000700090701000701010701020701030797
:1030FC00010407010507010607010707010807017D
:10310C000907020007020107020207020307020473
:10311C00070205070206070207070208070209074C
:10312C000300070301070302070303070304070354
:10313C00050703060703070703080703090704002D
:10314C000704010704020704030704040704050726
:10315C000406070407070408070409070500070508
:10316C000107050207050307050407050507050602
:10317C0007050707050807050907060007060107E5
:10318C0006020706030706040706050706060706D8
:10319C0007070608070609070700070701070702C4
:1031AC0007070307070407070507070607070707AD
:1031BC00070807070907080007080107080207089E
:1031CC000307080407080507080607080707080887
:1031DC00070809070900070901070902070903077E
:1031EC00090407090507090607090707090807095C
:1031FC000908000008000108000208000308000488
:10320C00080005080006080007080008080009085F
:10321C00010008010108010208010308010408016A
:10322C000508010608010708010808010908020041
:10323C000802010802020802030802040802050839
:10324C00020608020708020808020908030008031E
:10325C000108030208030308030408030508030616
:10326C0008030708030808030908040008040108F8
:10327C0004020804030804040804050804060804EE
:10328C0007080408080409080500080501080502D8
:10329C0008050308050408050508050608050708C0
:1032AC0005080805090806000806010806020806B4
:1032BC00030806040806050806060806070806089B
:1032CC000806090807000807010807020807030891
:1032DC000704080705080706080707080708080772
:1032EC00090808000808010808020808030808046F
:1032FC000808050808060808070808080808090847
:10330C000900080901080902080903080904080949
:10331C000508090608090708090808090909000031
:10332C00090001090002090003090004090005094C
:10333C000006090007090008090009090100090134
:10334C00010901020901030901040901050901062A
:10335C00090107090108090109090200090201090B
:10336C000202090203090204090205090206090204
:10337C0007090208090209090300090301090302EC
:10338C0009030309030409030509030609030709D3
:10339C0003080903090904000904010904020904CA
:1033AC0003090404090405090406090407090408AF
:1033BC0009040909050009050109050209050309A4
:1033CC000504090505090506090507090508090588
:1033DC000909060009060109060209060309060483
:1033EC00090605090606090607090608090609095A
:1033FC000700090701090702090703090704090760
:10340C00050907060907070907080907090908003C
:10341C000908010908020908030908040908050933
:10342C000806090807090808090809090900090913
:10343C000109090209090309090409090509090611
:10344C000909070909080909090000000024F4000A
:08345C00010000001000000057
:040000050800278147
:00000001FF
